{"contracts/RouletteContract.sol":{"RouletteContract":{"abi":[{"inputs":[],"stateMutability":"nonpayable","type":"constructor"},{"anonymous":false,"inputs":[{"indexed":true,"internalType":"address","name":"player","type":"address"},{"indexed":false,"internalType":"bool","name":"won","type":"bool"},{"indexed":false,"internalType":"uint256","name":"payout","type":"uint256"},{"indexed":false,"internalType":"uint256","name":"contractBalance","type":"uint256"}],"name":"SpinResult","type":"event"},{"inputs":[],"name":"betAmount","outputs":[{"internalType":"uint256","name":"","type":"uint256"}],"stateMutability":"view","type":"function"},{"inputs":[],"name":"betColor","outputs":[{"internalType":"uint256","name":"","type":"uint256"}],"stateMutability":"view","type":"function"},{"inputs":[],"name":"fundContract","outputs":[],"stateMutability":"payable","type":"function"},{"inputs":[],"name":"owner","outputs":[{"internalType":"address","name":"","type":"address"}],"stateMutability":"view","type":"function"},{"inputs":[{"internalType":"uint256","name":"_betColor","type":"uint256"}],"name":"spinWheel","outputs":[],"stateMutability":"payable","type":"function"},{"inputs":[],"name":"winner","outputs":[{"internalType":"address","name":"","type":"address"}],"stateMutability":"view","type":"function"},{"inputs":[],"name":"winningColor","outputs":[{"internalType":"uint256","name":"","type":"uint256"}],"stateMutability":"view","type":"function"},{"inputs":[{"internalType":"uint256","name":"amount","type":"uint256"}],"name":"withdrawFunds","outputs":[],"stateMutability":"nonpayable","type":"function"}],"evm":{"bytecode":{"linkReferences":{},"object":"6080604052600060055534801561001557600080fd5b50336000806101000a81548173ffffffffffffffffffffffffffffffffffffffff021916908373ffffffffffffffffffffffffffffffffffffffff160217905550610a96806100656000396000f3fe60806040526004361061007b5760003560e01c8063b6e066801161004e578063b6e066801461011b578063bd097e2114610146578063d24257c014610150578063dfbf53ae1461017b5761007b565b8063155dd5ee146100805780634949787b146100a95780638da5cb5b146100d4578063a2d7c106146100ff575b600080fd5b34801561008c57600080fd5b506100a760048036038101906100a2919061058f565b6101a6565b005b3480156100b557600080fd5b506100be6102e1565b6040516100cb91906105cb565b60405180910390f35b3480156100e057600080fd5b506100e96102e7565b6040516100f69190610627565b60405180910390f35b6101196004803603810190610114919061058f565b61030b565b005b34801561012757600080fd5b50610130610482565b60405161013d91906105cb565b60405180910390f35b61014e610488565b005b34801561015c57600080fd5b506101656104cd565b60405161017291906105cb565b60405180910390f35b34801561018757600080fd5b506101906104d3565b60405161019d9190610627565b60405180910390f35b60008054906101000a900473ffffffffffffffffffffffffffffffffffffffff1673ffffffffffffffffffffffffffffffffffffffff163373ffffffffffffffffffffffffffffffffffffffff1614610234576040517f08c379a000000000000000000000000000000000000000000000000000000000815260040161022b906106c5565b60405180910390fd5b80471015610277576040517f08c379a000000000000000000000000000000000000000000000000000000000815260040161026e90610731565b60405180910390fd5b60008054906101000a900473ffffffffffffffffffffffffffffffffffffffff1673ffffffffffffffffffffffffffffffffffffffff166108fc829081150290604051600060405180830381858888f193505050501580156102dd573d6000803e3d6000fd5b5050565b60035481565b60008054906101000a900473ffffffffffffffffffffffffffffffffffffffff1681565b6000341161034e576040517f08c379a00000000000000000000000000000000000000000000000000000000081526004016103459061079d565b60405180910390fd5b3460018190555061035d6104f9565b6003819055508060028190555060025460035403610428576000600260015461038691906107ec565b90503373ffffffffffffffffffffffffffffffffffffffff167fe05390c2a5f32aeaf4e0e6ddc4e4759a80e4d32f95cc008b32c7ac846dde2dd2600183476040516103d393929190610849565b60405180910390a23373ffffffffffffffffffffffffffffffffffffffff166108fc829081150290604051600060405180830381858888f19350505050158015610421573d6000803e3d6000fd5b505061047f565b60003373ffffffffffffffffffffffffffffffffffffffff167fe05390c2a5f32aeaf4e0e6ddc4e4759a80e4d32f95cc008b32c7ac846dde2dd26000834760405161047593929190610849565b60405180910390a2505b50565b60025481565b600034116104cb576040517f08c379a00000000000000000000000000000000000000000000000000000000081526004016104c2906108f2565b60405180910390fd5b565b60015481565b600460009054906101000a900473ffffffffffffffffffffffffffffffffffffffff1681565b60006005600081548092919061050e90610912565b91905055506002423360055460405160200161052c939291906109c3565b6040516020818303038152906040528051906020012060001c61054f9190610a2f565b905090565b600080fd5b6000819050919050565b61056c81610559565b811461057757600080fd5b50565b60008135905061058981610563565b92915050565b6000602082840312156105a5576105a4610554565b5b60006105b38482850161057a565b91505092915050565b6105c581610559565b82525050565b60006020820190506105e060008301846105bc565b92915050565b600073ffffffffffffffffffffffffffffffffffffffff82169050919050565b6000610611826105e6565b9050919050565b61062181610606565b82525050565b600060208201905061063c6000830184610618565b92915050565b600082825260208201905092915050565b7f4f6e6c7920746865206f776e65722063616e2077697468647261772066756e6460008201527f7300000000000000000000000000000000000000000000000000000000000000602082015250565b60006106af602183610642565b91506106ba82610653565b604082019050919050565b600060208201905081810360008301526106de816106a2565b9050919050565b7f496e73756666696369656e742066756e64730000000000000000000000000000600082015250565b600061071b601283610642565b9150610726826106e5565b602082019050919050565b6000602082019050818103600083015261074a8161070e565b9050919050565b7f416d6f756e74206d7573742062652067726561746572207468616e2030000000600082015250565b6000610787601d83610642565b915061079282610751565b602082019050919050565b600060208201905081810360008301526107b68161077a565b9050919050565b7f4e487b7100000000000000000000000000000000000000000000000000000000600052601160045260246000fd5b60006107f782610559565b915061080283610559565b925082820261081081610559565b91508282048414831517610827576108266107bd565b5b5092915050565b60008115159050919050565b6108438161082e565b82525050565b600060608201905061085e600083018661083a565b61086b60208301856105bc565b61087860408301846105bc565b949350505050565b7f4d7573742073656e642045544820746f2066756e642074686520636f6e74726160008201527f6374000000000000000000000000000000000000000000000000000000000000602082015250565b60006108dc602283610642565b91506108e782610880565b604082019050919050565b6000602082019050818103600083015261090b816108cf565b9050919050565b600061091d82610559565b91507fffffffffffffffffffffffffffffffffffffffffffffffffffffffffffffffff820361094f5761094e6107bd565b5b600182019050919050565b6000819050919050565b61097561097082610559565b61095a565b82525050565b60008160601b9050919050565b60006109938261097b565b9050919050565b60006109a582610988565b9050919050565b6109bd6109b882610606565b61099a565b82525050565b60006109cf8286610964565b6020820191506109df82856109ac565b6014820191506109ef8284610964565b602082019150819050949350505050565b7f4e487b7100000000000000000000000000000000000000000000000000000000600052601260045260246000fd5b6000610a3a82610559565b9150610a4583610559565b925082610a5557610a54610a00565b5b82820690509291505056fea264697066735822122020cadb60b561726bd1c7f22e10cf75c09bc80479f208d00309eb5c8a7ef2125c64736f6c63430008180033","opcodes":"PUSH1 0x80 PUSH1 0x40 MSTORE PUSH1 0x0 PUSH1 0x5 SSTORE CALLVALUE DUP1 ISZERO PUSH2 0x15 JUMPI PUSH1 0x0 DUP1 REVERT JUMPDEST POP CALLER PUSH1 0x0 DUP1 PUSH2 0x100 EXP DUP2 SLOAD DUP2 PUSH20 0xFFFFFFFFFFFFFFFFFFFFFFFFFFFFFFFFFFFFFFFF MUL NOT AND SWAP1 DUP4 PUSH20 0xFFFFFFFFFFFFFFFFFFFFFFFFFFFFFFFFFFFFFFFF AND MUL OR SWAP1 SSTORE POP PUSH2 0xA96 DUP1 PUSH2 0x65 PUSH1 0x0 CODECOPY PUSH1 0x0 RETURN INVALID PUSH1 0x80 PUSH1 0x40 MSTORE PUSH1 0x4 CALLDATASIZE LT PUSH2 0x7B JUMPI PUSH1 0x0 CALLDATALOAD PUSH1 0xE0 SHR DUP1 PUSH4 0xB6E06680 GT PUSH2 0x4E JUMPI DUP1 PUSH4 0xB6E06680 EQ PUSH2 0x11B JUMPI DUP1 PUSH4 0xBD097E21 EQ PUSH2 0x146 JUMPI DUP1 PUSH4 0xD24257C0 EQ PUSH2 0x150 JUMPI DUP1 PUSH4 0xDFBF53AE EQ PUSH2 0x17B JUMPI PUSH2 0x7B JUMP JUMPDEST DUP1 PUSH4 0x155DD5EE EQ PUSH2 0x80 JUMPI DUP1 PUSH4 0x4949787B EQ PUSH2 0xA9 JUMPI DUP1 PUSH4 0x8DA5CB5B EQ PUSH2 0xD4 JUMPI DUP1 PUSH4 0xA2D7C106 EQ PUSH2 0xFF JUMPI JUMPDEST PUSH1 0x0 DUP1 REVERT JUMPDEST CALLVALUE DUP1 ISZERO PUSH2 0x8C JUMPI PUSH1 0x0 DUP1 REVERT JUMPDEST POP PUSH2 0xA7 PUSH1 0x4 DUP1 CALLDATASIZE SUB DUP2 ADD SWAP1 PUSH2 0xA2 SWAP2 SWAP1 PUSH2 0x58F JUMP JUMPDEST PUSH2 0x1A6 JUMP JUMPDEST STOP JUMPDEST CALLVALUE DUP1 ISZERO PUSH2 0xB5 JUMPI PUSH1 0x0 DUP1 REVERT JUMPDEST POP PUSH2 0xBE PUSH2 0x2E1 JUMP JUMPDEST PUSH1 0x40 MLOAD PUSH2 0xCB SWAP2 SWAP1 PUSH2 0x5CB JUMP JUMPDEST PUSH1 0x40 MLOAD DUP1 SWAP2 SUB SWAP1 RETURN JUMPDEST CALLVALUE DUP1 ISZERO PUSH2 0xE0 JUMPI PUSH1 0x0 DUP1 REVERT JUMPDEST POP PUSH2 0xE9 PUSH2 0x2E7 JUMP JUMPDEST PUSH1 0x40 MLOAD PUSH2 0xF6 SWAP2 SWAP1 PUSH2 0x627 JUMP JUMPDEST PUSH1 0x40 MLOAD DUP1 SWAP2 SUB SWAP1 RETURN JUMPDEST PUSH2 0x119 PUSH1 0x4 DUP1 CALLDATASIZE SUB DUP2 ADD SWAP1 PUSH2 0x114 SWAP2 SWAP1 PUSH2 0x58F JUMP JUMPDEST PUSH2 0x30B JUMP JUMPDEST STOP JUMPDEST CALLVALUE DUP1 ISZERO PUSH2 0x127 JUMPI PUSH1 0x0 DUP1 REVERT JUMPDEST POP PUSH2 0x130 PUSH2 0x482 JUMP JUMPDEST PUSH1 0x40 MLOAD PUSH2 0x13D SWAP2 SWAP1 PUSH2 0x5CB JUMP JUMPDEST PUSH1 0x40 MLOAD DUP1 SWAP2 SUB SWAP1 RETURN JUMPDEST PUSH2 0x14E PUSH2 0x488 JUMP JUMPDEST STOP JUMPDEST CALLVALUE DUP1 ISZERO PUSH2 0x15C JUMPI PUSH1 0x0 DUP1 REVERT JUMPDEST POP PUSH2 0x165 PUSH2 0x4CD JUMP JUMPDEST PUSH1 0x40 MLOAD PUSH2 0x172 SWAP2 SWAP1 PUSH2 0x5CB JUMP JUMPDEST PUSH1 0x40 MLOAD DUP1 SWAP2 SUB SWAP1 RETURN JUMPDEST CALLVALUE DUP1 ISZERO PUSH2 0x187 JUMPI PUSH1 0x0 DUP1 REVERT JUMPDEST POP PUSH2 0x190 PUSH2 0x4D3 JUMP JUMPDEST PUSH1 0x40 MLOAD PUSH2 0x19D SWAP2 SWAP1 PUSH2 0x627 JUMP JUMPDEST PUSH1 0x40 MLOAD DUP1 SWAP2 SUB SWAP1 RETURN JUMPDEST PUSH1 0x0 DUP1 SLOAD SWAP1 PUSH2 0x100 EXP SWAP1 DIV PUSH20 0xFFFFFFFFFFFFFFFFFFFFFFFFFFFFFFFFFFFFFFFF AND PUSH20 0xFFFFFFFFFFFFFFFFFFFFFFFFFFFFFFFFFFFFFFFF AND CALLER PUSH20 0xFFFFFFFFFFFFFFFFFFFFFFFFFFFFFFFFFFFFFFFF AND EQ PUSH2 0x234 JUMPI PUSH1 0x40 MLOAD PUSH32 0x8C379A000000000000000000000000000000000000000000000000000000000 DUP2 MSTORE PUSH1 0x4 ADD PUSH2 0x22B SWAP1 PUSH2 0x6C5 JUMP JUMPDEST PUSH1 0x40 MLOAD DUP1 SWAP2 SUB SWAP1 REVERT JUMPDEST DUP1 SELFBALANCE LT ISZERO PUSH2 0x277 JUMPI PUSH1 0x40 MLOAD PUSH32 0x8C379A000000000000000000000000000000000000000000000000000000000 DUP2 MSTORE PUSH1 0x4 ADD PUSH2 0x26E SWAP1 PUSH2 0x731 JUMP JUMPDEST PUSH1 0x40 MLOAD DUP1 SWAP2 SUB SWAP1 REVERT JUMPDEST PUSH1 0x0 DUP1 SLOAD SWAP1 PUSH2 0x100 EXP SWAP1 DIV PUSH20 0xFFFFFFFFFFFFFFFFFFFFFFFFFFFFFFFFFFFFFFFF AND PUSH20 0xFFFFFFFFFFFFFFFFFFFFFFFFFFFFFFFFFFFFFFFF AND PUSH2 0x8FC DUP3 SWAP1 DUP2 ISZERO MUL SWAP1 PUSH1 0x40 MLOAD PUSH1 0x0 PUSH1 0x40 MLOAD DUP1 DUP4 SUB DUP2 DUP6 DUP9 DUP9 CALL SWAP4 POP POP POP POP ISZERO DUP1 ISZERO PUSH2 0x2DD JUMPI RETURNDATASIZE PUSH1 0x0 DUP1 RETURNDATACOPY RETURNDATASIZE PUSH1 0x0 REVERT JUMPDEST POP POP JUMP JUMPDEST PUSH1 0x3 SLOAD DUP2 JUMP JUMPDEST PUSH1 0x0 DUP1 SLOAD SWAP1 PUSH2 0x100 EXP SWAP1 DIV PUSH20 0xFFFFFFFFFFFFFFFFFFFFFFFFFFFFFFFFFFFFFFFF AND DUP2 JUMP JUMPDEST PUSH1 0x0 CALLVALUE GT PUSH2 0x34E JUMPI PUSH1 0x40 MLOAD PUSH32 0x8C379A000000000000000000000000000000000000000000000000000000000 DUP2 MSTORE PUSH1 0x4 ADD PUSH2 0x345 SWAP1 PUSH2 0x79D JUMP JUMPDEST PUSH1 0x40 MLOAD DUP1 SWAP2 SUB SWAP1 REVERT JUMPDEST CALLVALUE PUSH1 0x1 DUP2 SWAP1 SSTORE POP PUSH2 0x35D PUSH2 0x4F9 JUMP JUMPDEST PUSH1 0x3 DUP2 SWAP1 SSTORE POP DUP1 PUSH1 0x2 DUP2 SWAP1 SSTORE POP PUSH1 0x2 SLOAD PUSH1 0x3 SLOAD SUB PUSH2 0x428 JUMPI PUSH1 0x0 PUSH1 0x2 PUSH1 0x1 SLOAD PUSH2 0x386 SWAP2 SWAP1 PUSH2 0x7EC JUMP JUMPDEST SWAP1 POP CALLER PUSH20 0xFFFFFFFFFFFFFFFFFFFFFFFFFFFFFFFFFFFFFFFF AND PUSH32 0xE05390C2A5F32AEAF4E0E6DDC4E4759A80E4D32F95CC008B32C7AC846DDE2DD2 PUSH1 0x1 DUP4 SELFBALANCE PUSH1 0x40 MLOAD PUSH2 0x3D3 SWAP4 SWAP3 SWAP2 SWAP1 PUSH2 0x849 JUMP JUMPDEST PUSH1 0x40 MLOAD DUP1 SWAP2 SUB SWAP1 LOG2 CALLER PUSH20 0xFFFFFFFFFFFFFFFFFFFFFFFFFFFFFFFFFFFFFFFF AND PUSH2 0x8FC DUP3 SWAP1 DUP2 ISZERO MUL SWAP1 PUSH1 0x40 MLOAD PUSH1 0x0 PUSH1 0x40 MLOAD DUP1 DUP4 SUB DUP2 DUP6 DUP9 DUP9 CALL SWAP4 POP POP POP POP ISZERO DUP1 ISZERO PUSH2 0x421 JUMPI RETURNDATASIZE PUSH1 0x0 DUP1 RETURNDATACOPY RETURNDATASIZE PUSH1 0x0 REVERT JUMPDEST POP POP PUSH2 0x47F JUMP JUMPDEST PUSH1 0x0 CALLER PUSH20 0xFFFFFFFFFFFFFFFFFFFFFFFFFFFFFFFFFFFFFFFF AND PUSH32 0xE05390C2A5F32AEAF4E0E6DDC4E4759A80E4D32F95CC008B32C7AC846DDE2DD2 PUSH1 0x0 DUP4 SELFBALANCE PUSH1 0x40 MLOAD PUSH2 0x475 SWAP4 SWAP3 SWAP2 SWAP1 PUSH2 0x849 JUMP JUMPDEST PUSH1 0x40 MLOAD DUP1 SWAP2 SUB SWAP1 LOG2 POP JUMPDEST POP JUMP JUMPDEST PUSH1 0x2 SLOAD DUP2 JUMP JUMPDEST PUSH1 0x0 CALLVALUE GT PUSH2 0x4CB JUMPI PUSH1 0x40 MLOAD PUSH32 0x8C379A000000000000000000000000000000000000000000000000000000000 DUP2 MSTORE PUSH1 0x4 ADD PUSH2 0x4C2 SWAP1 PUSH2 0x8F2 JUMP JUMPDEST PUSH1 0x40 MLOAD DUP1 SWAP2 SUB SWAP1 REVERT JUMPDEST JUMP JUMPDEST PUSH1 0x1 SLOAD DUP2 JUMP JUMPDEST PUSH1 0x4 PUSH1 0x0 SWAP1 SLOAD SWAP1 PUSH2 0x100 EXP SWAP1 DIV PUSH20 0xFFFFFFFFFFFFFFFFFFFFFFFFFFFFFFFFFFFFFFFF AND DUP2 JUMP JUMPDEST PUSH1 0x0 PUSH1 0x5 PUSH1 0x0 DUP2 SLOAD DUP1 SWAP3 SWAP2 SWAP1 PUSH2 0x50E SWAP1 PUSH2 0x912 JUMP JUMPDEST SWAP2 SWAP1 POP SSTORE POP PUSH1 0x2 TIMESTAMP CALLER PUSH1 0x5 SLOAD PUSH1 0x40 MLOAD PUSH1 0x20 ADD PUSH2 0x52C SWAP4 SWAP3 SWAP2 SWAP1 PUSH2 0x9C3 JUMP JUMPDEST PUSH1 0x40 MLOAD PUSH1 0x20 DUP2 DUP4 SUB SUB DUP2 MSTORE SWAP1 PUSH1 0x40 MSTORE DUP1 MLOAD SWAP1 PUSH1 0x20 ADD KECCAK256 PUSH1 0x0 SHR PUSH2 0x54F SWAP2 SWAP1 PUSH2 0xA2F JUMP JUMPDEST SWAP1 POP SWAP1 JUMP JUMPDEST PUSH1 0x0 DUP1 REVERT JUMPDEST PUSH1 0x0 DUP2 SWAP1 POP SWAP2 SWAP1 POP JUMP JUMPDEST PUSH2 0x56C DUP2 PUSH2 0x559 JUMP JUMPDEST DUP2 EQ PUSH2 0x577 JUMPI PUSH1 0x0 DUP1 REVERT JUMPDEST POP JUMP JUMPDEST PUSH1 0x0 DUP2 CALLDATALOAD SWAP1 POP PUSH2 0x589 DUP2 PUSH2 0x563 JUMP JUMPDEST SWAP3 SWAP2 POP POP JUMP JUMPDEST PUSH1 0x0 PUSH1 0x20 DUP3 DUP5 SUB SLT ISZERO PUSH2 0x5A5 JUMPI PUSH2 0x5A4 PUSH2 0x554 JUMP JUMPDEST JUMPDEST PUSH1 0x0 PUSH2 0x5B3 DUP5 DUP3 DUP6 ADD PUSH2 0x57A JUMP JUMPDEST SWAP2 POP POP SWAP3 SWAP2 POP POP JUMP JUMPDEST PUSH2 0x5C5 DUP2 PUSH2 0x559 JUMP JUMPDEST DUP3 MSTORE POP POP JUMP JUMPDEST PUSH1 0x0 PUSH1 0x20 DUP3 ADD SWAP1 POP PUSH2 0x5E0 PUSH1 0x0 DUP4 ADD DUP5 PUSH2 0x5BC JUMP JUMPDEST SWAP3 SWAP2 POP POP JUMP JUMPDEST PUSH1 0x0 PUSH20 0xFFFFFFFFFFFFFFFFFFFFFFFFFFFFFFFFFFFFFFFF DUP3 AND SWAP1 POP SWAP2 SWAP1 POP JUMP JUMPDEST PUSH1 0x0 PUSH2 0x611 DUP3 PUSH2 0x5E6 JUMP JUMPDEST SWAP1 POP SWAP2 SWAP1 POP JUMP JUMPDEST PUSH2 0x621 DUP2 PUSH2 0x606 JUMP JUMPDEST DUP3 MSTORE POP POP JUMP JUMPDEST PUSH1 0x0 PUSH1 0x20 DUP3 ADD SWAP1 POP PUSH2 0x63C PUSH1 0x0 DUP4 ADD DUP5 PUSH2 0x618 JUMP JUMPDEST SWAP3 SWAP2 POP POP JUMP JUMPDEST PUSH1 0x0 DUP3 DUP3 MSTORE PUSH1 0x20 DUP3 ADD SWAP1 POP SWAP3 SWAP2 POP POP JUMP JUMPDEST PUSH32 0x4F6E6C7920746865206F776E65722063616E2077697468647261772066756E64 PUSH1 0x0 DUP3 ADD MSTORE PUSH32 0x7300000000000000000000000000000000000000000000000000000000000000 PUSH1 0x20 DUP3 ADD MSTORE POP JUMP JUMPDEST PUSH1 0x0 PUSH2 0x6AF PUSH1 0x21 DUP4 PUSH2 0x642 JUMP JUMPDEST SWAP2 POP PUSH2 0x6BA DUP3 PUSH2 0x653 JUMP JUMPDEST PUSH1 0x40 DUP3 ADD SWAP1 POP SWAP2 SWAP1 POP JUMP JUMPDEST PUSH1 0x0 PUSH1 0x20 DUP3 ADD SWAP1 POP DUP2 DUP2 SUB PUSH1 0x0 DUP4 ADD MSTORE PUSH2 0x6DE DUP2 PUSH2 0x6A2 JUMP JUMPDEST SWAP1 POP SWAP2 SWAP1 POP JUMP JUMPDEST PUSH32 0x496E73756666696369656E742066756E64730000000000000000000000000000 PUSH1 0x0 DUP3 ADD MSTORE POP JUMP JUMPDEST PUSH1 0x0 PUSH2 0x71B PUSH1 0x12 DUP4 PUSH2 0x642 JUMP JUMPDEST SWAP2 POP PUSH2 0x726 DUP3 PUSH2 0x6E5 JUMP JUMPDEST PUSH1 0x20 DUP3 ADD SWAP1 POP SWAP2 SWAP1 POP JUMP JUMPDEST PUSH1 0x0 PUSH1 0x20 DUP3 ADD SWAP1 POP DUP2 DUP2 SUB PUSH1 0x0 DUP4 ADD MSTORE PUSH2 0x74A DUP2 PUSH2 0x70E JUMP JUMPDEST SWAP1 POP SWAP2 SWAP1 POP JUMP JUMPDEST PUSH32 0x416D6F756E74206D7573742062652067726561746572207468616E2030000000 PUSH1 0x0 DUP3 ADD MSTORE POP JUMP JUMPDEST PUSH1 0x0 PUSH2 0x787 PUSH1 0x1D DUP4 PUSH2 0x642 JUMP JUMPDEST SWAP2 POP PUSH2 0x792 DUP3 PUSH2 0x751 JUMP JUMPDEST PUSH1 0x20 DUP3 ADD SWAP1 POP SWAP2 SWAP1 POP JUMP JUMPDEST PUSH1 0x0 PUSH1 0x20 DUP3 ADD SWAP1 POP DUP2 DUP2 SUB PUSH1 0x0 DUP4 ADD MSTORE PUSH2 0x7B6 DUP2 PUSH2 0x77A JUMP JUMPDEST SWAP1 POP SWAP2 SWAP1 POP JUMP JUMPDEST PUSH32 0x4E487B7100000000000000000000000000000000000000000000000000000000 PUSH1 0x0 MSTORE PUSH1 0x11 PUSH1 0x4 MSTORE PUSH1 0x24 PUSH1 0x0 REVERT JUMPDEST PUSH1 0x0 PUSH2 0x7F7 DUP3 PUSH2 0x559 JUMP JUMPDEST SWAP2 POP PUSH2 0x802 DUP4 PUSH2 0x559 JUMP JUMPDEST SWAP3 POP DUP3 DUP3 MUL PUSH2 0x810 DUP2 PUSH2 0x559 JUMP JUMPDEST SWAP2 POP DUP3 DUP3 DIV DUP5 EQ DUP4 ISZERO OR PUSH2 0x827 JUMPI PUSH2 0x826 PUSH2 0x7BD JUMP JUMPDEST JUMPDEST POP SWAP3 SWAP2 POP POP JUMP JUMPDEST PUSH1 0x0 DUP2 ISZERO ISZERO SWAP1 POP SWAP2 SWAP1 POP JUMP JUMPDEST PUSH2 0x843 DUP2 PUSH2 0x82E JUMP JUMPDEST DUP3 MSTORE POP POP JUMP JUMPDEST PUSH1 0x0 PUSH1 0x60 DUP3 ADD SWAP1 POP PUSH2 0x85E PUSH1 0x0 DUP4 ADD DUP7 PUSH2 0x83A JUMP JUMPDEST PUSH2 0x86B PUSH1 0x20 DUP4 ADD DUP6 PUSH2 0x5BC JUMP JUMPDEST PUSH2 0x878 PUSH1 0x40 DUP4 ADD DUP5 PUSH2 0x5BC JUMP JUMPDEST SWAP5 SWAP4 POP POP POP POP JUMP JUMPDEST PUSH32 0x4D7573742073656E642045544820746F2066756E642074686520636F6E747261 PUSH1 0x0 DUP3 ADD MSTORE PUSH32 0x6374000000000000000000000000000000000000000000000000000000000000 PUSH1 0x20 DUP3 ADD MSTORE POP JUMP JUMPDEST PUSH1 0x0 PUSH2 0x8DC PUSH1 0x22 DUP4 PUSH2 0x642 JUMP JUMPDEST SWAP2 POP PUSH2 0x8E7 DUP3 PUSH2 0x880 JUMP JUMPDEST PUSH1 0x40 DUP3 ADD SWAP1 POP SWAP2 SWAP1 POP JUMP JUMPDEST PUSH1 0x0 PUSH1 0x20 DUP3 ADD SWAP1 POP DUP2 DUP2 SUB PUSH1 0x0 DUP4 ADD MSTORE PUSH2 0x90B DUP2 PUSH2 0x8CF JUMP JUMPDEST SWAP1 POP SWAP2 SWAP1 POP JUMP JUMPDEST PUSH1 0x0 PUSH2 0x91D DUP3 PUSH2 0x559 JUMP JUMPDEST SWAP2 POP PUSH32 0xFFFFFFFFFFFFFFFFFFFFFFFFFFFFFFFFFFFFFFFFFFFFFFFFFFFFFFFFFFFFFFFF DUP3 SUB PUSH2 0x94F JUMPI PUSH2 0x94E PUSH2 0x7BD JUMP JUMPDEST JUMPDEST PUSH1 0x1 DUP3 ADD SWAP1 POP SWAP2 SWAP1 POP JUMP JUMPDEST PUSH1 0x0 DUP2 SWAP1 POP SWAP2 SWAP1 POP JUMP JUMPDEST PUSH2 0x975 PUSH2 0x970 DUP3 PUSH2 0x559 JUMP JUMPDEST PUSH2 0x95A JUMP JUMPDEST DUP3 MSTORE POP POP JUMP JUMPDEST PUSH1 0x0 DUP2 PUSH1 0x60 SHL SWAP1 POP SWAP2 SWAP1 POP JUMP JUMPDEST PUSH1 0x0 PUSH2 0x993 DUP3 PUSH2 0x97B JUMP JUMPDEST SWAP1 POP SWAP2 SWAP1 POP JUMP JUMPDEST PUSH1 0x0 PUSH2 0x9A5 DUP3 PUSH2 0x988 JUMP JUMPDEST SWAP1 POP SWAP2 SWAP1 POP JUMP JUMPDEST PUSH2 0x9BD PUSH2 0x9B8 DUP3 PUSH2 0x606 JUMP JUMPDEST PUSH2 0x99A JUMP JUMPDEST DUP3 MSTORE POP POP JUMP JUMPDEST PUSH1 0x0 PUSH2 0x9CF DUP3 DUP7 PUSH2 0x964 JUMP JUMPDEST PUSH1 0x20 DUP3 ADD SWAP2 POP PUSH2 0x9DF DUP3 DUP6 PUSH2 0x9AC JUMP JUMPDEST PUSH1 0x14 DUP3 ADD SWAP2 POP PUSH2 0x9EF DUP3 DUP5 PUSH2 0x964 JUMP JUMPDEST PUSH1 0x20 DUP3 ADD SWAP2 POP DUP2 SWAP1 POP SWAP5 SWAP4 POP POP POP POP JUMP JUMPDEST PUSH32 0x4E487B7100000000000000000000000000000000000000000000000000000000 PUSH1 0x0 MSTORE PUSH1 0x12 PUSH1 0x4 MSTORE PUSH1 0x24 PUSH1 0x0 REVERT JUMPDEST PUSH1 0x0 PUSH2 0xA3A DUP3 PUSH2 0x559 JUMP JUMPDEST SWAP2 POP PUSH2 0xA45 DUP4 PUSH2 0x559 JUMP JUMPDEST SWAP3 POP DUP3 PUSH2 0xA55 JUMPI PUSH2 0xA54 PUSH2 0xA00 JUMP JUMPDEST JUMPDEST DUP3 DUP3 MOD SWAP1 POP SWAP3 SWAP2 POP POP JUMP INVALID LOG2 PUSH5 0x6970667358 0x22 SLT KECCAK256 KECCAK256 0xCA 0xDB PUSH1 0xB5 PUSH2 0x726B 0xD1 0xC7 CALLCODE 0x2E LT 0xCF PUSH22 0xC09BC80479F208D00309EB5C8A7EF2125C64736F6C63 NUMBER STOP ADDMOD XOR STOP CALLER "},"methodIdentifiers":{"betAmount()":"d24257c0","betColor()":"b6e06680","fundContract()":"bd097e21","owner()":"8da5cb5b","spinWheel(uint256)":"a2d7c106","winner()":"dfbf53ae","winningColor()":"4949787b","withdrawFunds(uint256)":"155dd5ee"}}}}}